:100000000C942A000C94760E0C94AC0E0C94E20E18
:100010000C94E0120C94AD120C947A120C944712CA
:100020000C9414120C94E1110C94AE110C947B11ED
:100030000C9447000C9447000C9447000C94470024
:100040000C9447000C9447000C9447000C94470014
:100050000C94470011241FBECFE5D8E0DEBFCDBF12
:1000600010E0A8E6B0E001C01D92AF38B107E1F79B
:1000700010E0A0E6B0E0EAE9FAE202C005900D92D5
:10008000A836B107D9F70E94C9140C944B150C94EB
:100090000000EF92FF920F931F937B018C0120E0F1
:1000A00030E040E05FE40E94490388238CF0C801FF
:1000B000B70120E030E040E05FE40E94C1010E940F
:1000C000A9039B01AC01205030404040504806C07D
:1000D000C801B7010E94A9039B01AC01B901CA0183
:1000E0001F910F91FF90EF900895A0E0B0E0EBE733
:1000F000F0E00C941415DC012B01FA019C91923074
:1001000008F439C1EB018881823008F433C194309E
:1001100069F4843009F02FC111969C91119789815F
:10012000981709F428C1A0E6B0E025C1843009F48D
:1001300021C18230A9F4923009F01DC19A01AD01AC
:1001400088E0EA010990AE01E90109929E0181501F
:10015000C1F7E201898111969C918923818308C1AD
:10016000923009F407C112962D903C901397EB0141
:100170008A819B811496AD90BD90CD90DC901797AD
:10018000EC80FD800E811F819101281B390BB90184
:1001900037FF04C066277727621B730B6032710537
:1001A0000CF061C0121613066CF537014801062EDB
:1001B00004C096948794779467940A94D2F721E0C8
:1001C00030E040E050E004C0220F331F441F551FB1
:1001D0006A95D2F721503040404050402E213F21B7
:1001E00040235123211531054105510521F021E01E
:1001F00030E040E050E079018A01E628F72808293C
:1002000019293CC0232BD1F1260E371E350146019A
:10021000062E04C096948794779467940A94D2F734
:1002200021E030E040E050E004C0220F331F441FC3
:10023000551F6A95D2F721503040404050402A2146
:100240003B214C215D21211531054105510521F04E
:1002500021E030E040E050E059016A01A628B728CB
:10026000C828D9280BC0821593052CF01C01AA249C
:10027000BB24650103C0EE24FF24870111969C91E5
:10028000D20111968C91981709F445C0992339F041
:10029000A80197012A193B094C095D0906C0A6016E
:1002A00095012E193F09400B510B57FD08C01182D3
:1002B0003382228224833583468357831DC081E0A5
:1002C00081833382228288279927DC01821B930B4A
:1002D000A40BB50B84839583A683B7830DC0220F2F
:1002E000331F441F551F24833583468357838281E0
:1002F000938101979383828324813581468157813D
:10030000DA01C9010197A109B1098F5F9F4FAF4F72
:10031000BF4328F30BC0918333822282EA0CFB1C7B
:100320000C1D1D1DE482F5820683178383E0808304
:10033000248135814681578157FF1AC0C901AA27F8
:1003400097FDA095BA2F81709070A070B0705695EF
:10035000479537952795822B932BA42BB52B848318
:100360009583A683B7838281938101969383828349
:10037000DF0101C0D201CD01CDB7DEB7E2E10C94BF
:100380003015A0E2B0E0E7ECF1E00C9420156983B1
:100390007A838B839C832D833E834F835887E9E048
:1003A000EE2EF12CEC0EFD1ECE010196B7010E943F
:1003B000D2048E010F5E1F4FCE010596B8010E9438
:1003C000D2048A8991E089278A8BC701B801AE01DE
:1003D000475E5F4F0E9475000E94FD03A096E6E015
:1003E0000C943C15A0E2B0E0E8EFF1E00C9420158D
:1003F00069837A838B839C832D833E834F835887C5
:10040000F9E0EF2EF12CEC0EFD1ECE010196B701A6
:100410000E94D2048E010F5E1F4FCE010596B801D7
:100420000E94D204C701B801AE01475E5F4F0E942F
:1004300075000E94FD03A096E6E00C943C15A0E236
:10044000B0E0E5E2F2E00C94141569837A838B83C3
:100450009C832D833E834F835887CE010196BE0136
:10046000675F7F4F0E94D204CE010596BE016F5E8A
:100470007F4F0E94D2049985923088F0898982301A
:10048000C8F0943019F4823051F404C0843029F457
:10049000923081F480E690E0C6C0923049F420E0CA
:1004A0009A858A89981321E02A87CE010996BBC0D4
:1004B000823049F420E09A858A89981321E02A8BBA
:1004C000CE014196B0C02D843E844F8458886D88FB
:1004D0007E888F88988CEE24FF248701AA24BB2471
:1004E000650140E050E060E070E0E0E0F0E0C10174
:1004F00081709070892BE9F0E60CF71C081D191D1E
:100500009A01AB012A0D3B1D4C1D5D1D80E090E062
:10051000A0E0B0E0E614F7040805190520F481E036
:1005200090E0A0E0B0E0BA01A901480F591F6A1F8E
:100530007B1FAA0CBB1CCC1CDD1C97FE08C081E0F5
:1005400090E0A0E0B0E0A82AB92ACA2ADB2A3196B6
:10055000E032F10549F0660C771C881C991C569412
:10056000479437942794C3CFFA85EA892B893C892D
:100570008B859C85280F391F2E5F3F4F17C0CA01FE
:1005800081709070892B61F016950795F794E79428
:1005900080E090E0A0E0B0E8E82AF92A0A2B1B2BC3
:1005A00076956795579547952F5F3F4F77FDE7CF36
:1005B0000CC0440F551F661F771F17FD4160EE0CDE
:1005C000FF1C001F111F21503040403090E05907A0
:1005D00090E0690790E4790760F32B8F3C8FDB0193
:1005E000CA018F779070A070B07080349105A1051A
:1005F000B10561F447FD0AC0E114F10401051105DC
:1006000029F0405C5F4F6F4F7F4F40781A8EFE1786
:1006100011F081E08A8F4D8F5E8F6F8F78A383E01A
:10062000898FCE0149960E94FD03A096E2E10C94C9
:100630003015A8E1B0E0EFE1F3E00C9420156983F8
:100640007A838B839C832D833E834F83588789E0F5
:10065000E82EF12CEC0EFD1ECE010196B7010E9492
:10066000D2048E010F5E1F4FCE010596B8010E9485
:10067000D2048985823040F08989823028F0C70110
:10068000B8010E944A0501C08FEF6896E6E00C941D
:100690003C15A8E1B0E0EFE4F3E00C942015698389
:1006A0007A838B839C832D833E834F83588789E095
:1006B000E82EF12CEC0EFD1ECE010196B7010E9432
:1006C000D2048E010F5E1F4FCE010596B8010E9425
:1006D000D2048985823040F08989823028F0C701B0
:1006E000B8010E944A0501C08FEF6896E6E00C94BD
:1006F0003C15A8E1B0E0EFE7F3E00C942015698326
:100700007A838B839C832D833E834F83588789E034
:10071000E82EF12CEC0EFD1ECE010196B7010E94D1
:10072000D2048E010F5E1F4FCE010596B8010E94C4
:10073000D2048985823040F08989823028F0C7014F
:10074000B8010E944A0501C081E06896E6E00C9479
:100750003C15ACE0B0E0EFEAF3E00C9424156983BB
:100760007A838B839C83CE010196BE016B5F7F4FA2
:100770000E94D2048D81823061F1823050F1843048
:1007800021F48E81882351F12EC02F81388537FDC9
:1007900020C06E812F3131051CF06623F9F023C093
:1007A0008EE190E0821B930B29853A854B855C8511
:1007B00004C056954795379527958A95D2F76623B5
:1007C000B1F050954095309521953F4F4F4F5F4F79
:1007D0000EC020E030E040E050E009C02FEF3FEFD6
:1007E0004FEF5FE704C020E030E040E050E8B9019F
:1007F000CA012C96E2E00C944015DF92EF92FF9232
:100800000F931F93FC01E480F58006811781D1804E
:100810008081823048F480E090E0A0E1B0E0E82AF6
:10082000F92A0A2B1B2BA5C0843009F49FC0823003
:1008300021F4EE24FF24870105C0E114F104010531
:10084000110519F4E0E0F0E096C0628173819FEF3A
:10085000623879070CF05BC022E83FEF261B370BAC
:100860002A3131052CF020E030E040E050E02AC091
:10087000B801A701022E04C0769567955795479554
:100880000A94D2F781E090E0A0E0B0E004C0880FC5
:10089000991FAA1FBB1F2A95D2F70197A109B10979
:1008A0008E219F21A023B1230097A105B10521F03E
:1008B00081E090E0A0E0B0E09A01AB01282B392B59
:1008C0004A2B5B2BDA01C9018F779070A070B07052
:1008D00080349105A105B10539F427FF09C0205CDA
:1008E0003F4F4F4F5F4F04C0215C3F4F4F4F5F4F13
:1008F000E0E0F0E02030A0E03A07A0E04A07A0E402
:100900005A0710F0E1E0F0E079018A0127C0603871
:10091000710564F5FB01E158FF4FD801C7018F77DE
:100920009070A070B07080349105A105B10539F4C4
:10093000E7FE0DC080E490E0A0E0B0E004C08FE3EB
:1009400090E0A0E0B0E0E80EF91E0A1F1B1F17FFA1
:1009500005C016950795F794E794319687E01695AC
:100960000795F794E7948A95D1F705C0EE24FF2404
:100970008701EFEFF0E06E2F679566276795902F60
:100980009F77D794DD24D7948E2F8695492F462BB9
:10099000582F5D29B701CA011F910F91FF90EF9069
:1009A000DF900895FC01DB01408151812281622F9B
:1009B0006F7770E0221F2227221F9381892F880FD3
:1009C000822B282F30E0991F9927991F11969C930D
:1009D000119721153105A9F54115510561057105DD
:1009E00011F482E037C082E89FEF13969C938E93B8
:1009F00012979A01AB0167E0220F331F441F551F66
:100A00006A95D1F783E08C930DC0220F331F441FEA
:100A1000551F12968D919C911397019713969C9355
:100A20008E931297203080E0380780E0480780E4FA
:100A3000580758F314962D933D934D935C93179755
:100A400008952F3F310579F4411551056105710570
:100A500019F484E08C93089564FF03C081E08C93C3
:100A600012C01C9210C02F57304013963C932E9307
:100A7000129783E08C9387E0440F551F661F771F02
:100A80008A95D1F7706414964D935D936D937C9322
:100A9000179708951F93DC01FB019C91923008F495
:100AA00047C08081823008F443C0943051F41196DD
:100AB0001C91843099F58181682F70E0611B710968
:100AC0003FC0843021F0923031F48230B9F181811D
:100AD000882389F12DC011961C9111978230F1F075
:100AE00081811817D9F412962D913C911397828128
:100AF00093818217930794F028173907BCF0149656
:100B00008D919D910D90BC91A02D248135814681C0
:100B10005781281739074A075B0718F4112341F05A
:100B20000AC082179307A407B50740F4112319F0F0
:100B300061E070E005C06FEF7FEF02C060E070E041
:100B4000CB011F910895DF93CF93CDB7DEB72897E0
:100B50000FB6F894DEBF0FBECDBF8A836B834C8384
:100B600081E089838A81843008F0F1C08B818830EC
:100B700008F0EDC08C81813009F06FC08A81282F88
:100B800030E038872F838F8198858130910549F136
:100B90002F813885223031052CF48F81988500977C
:100BA00061F0D6C02F8138852230310571F18F81F7
:100BB000988583309105E9F1CBC0AAE3B0E0EAE380
:100BC000F0E08081482F8B81282F30E081E090E099
:100BD000022E02C0880F991F0A94E2F7842B8C938F
:100BE000B7C0A7E3B0E0E7E3F0E08081482F8B8156
:100BF000282F30E081E090E0022E02C0880F991F7C
:100C00000A94E2F7842B8C93A3C0A4E3B0E0E4E35E
:100C1000F0E08081482F8B81282F30E081E090E048
:100C2000022E02C0880F991F0A94E2F7842B8C933E
:100C30008FC0A1E3B0E0E1E3F0E08081482F8B8139
:100C4000282F30E081E090E0022E02C0880F991F2B
:100C50000A94E2F7842B8C937BC08C81882309F063
:100C600074C08A81282F30E03E832D838D819E8140
:100C70008130910559F12D813E81223031052CF4CE
:100C80008D819E81009769F063C02D813E81223065
:100C9000310589F18D819E818330910509F440C031
:100CA00057C0AAE3B0E0EAE3F0E08081482F8B81EF
:100CB000282F30E081E090E0022E02C0880F991FBB
:100CC0000A94E2F7809584238C9342C0A7E3B0E0B6
:100CD000E7E3F0E08081482F8B81282F30E081E02E
:100CE00090E0022E02C0880F991F0A94E2F78095C7
:100CF00084238C932DC0A4E3B0E0E4E3F0E0808192
:100D0000482F8B81282F30E081E090E0022E02C036
:100D1000880F991F0A94E2F7809584238C9318C05A
:100D2000A1E3B0E0E1E3F0E08081482F8B81282F40
:100D300030E081E090E0022E02C0880F991F0A94F3
:100D4000E2F7809584238C9303C0198201C0198235
:100D5000898128960FB6F894DEBF0FBECDBFCF9124
:100D6000DF910895DF93CF93CDB7DEB728970FB605
:100D7000F894DEBF0FBECDBF8A836B834C8381E0C6
:100D800089838A81843008F0F1C08B81883008F033
:100D9000EDC08C81813009F06FC08A81282F30E04E
:100DA00038872F838F8198858130910549F12F8174
:100DB0003885223031052CF48F819885009761F0B9
:100DC000D6C02F8138852230310571F18F81988509
:100DD00083309105E9F1CBC0ABE3B0E0EBE3F0E0A9
:100DE0008081482F8B81282F30E081E090E0022E17
:100DF00002C0880F991F0A94E2F7842B8C93B7C026
:100E0000A8E3B0E0E8E3F0E08081482F8B81282F51
:100E100030E081E090E0022E02C0880F991F0A9412
:100E2000E2F7842B8C93A3C0A5E3B0E0E5E3F0E008
:100E30008081482F8B81282F30E081E090E0022EC6
:100E400002C0880F991F0A94E2F7842B8C938FC0FD
:100E5000A2E3B0E0E2E3F0E08081482F8B81282F0D
:100E600030E081E090E0022E02C0880F991F0A94C2
:100E7000E2F7842B8C937BC08C81882309F074C0AB
:100E80008A81282F30E03E832D838D819E818130A1
:100E9000910559F12D813E81223031052CF48D814F
:100EA0009E81009769F063C02D813E81223031051B
:100EB00089F18D819E818330910509F440C057C02E
:100EC000ABE3B0E0EBE3F0E08081482F8B81282F8B
:100ED00030E081E090E0022E02C0880F991F0A9452
:100EE000E2F7809584238C9342C0A8E3B0E0E8E366
:100EF000F0E08081482F8B81282F30E081E090E066
:100F0000022E02C0880F991F0A94E2F7809584236D
:100F10008C932DC0A5E3B0E0E5E3F0E08081482F9D
:100F20008B81282F30E081E090E0022E02C0880FF4
:100F3000991F0A94E2F7809584238C9318C0A2E34A
:100F4000B0E0E2E3F0E08081482F8B81282F30E091
:100F500081E090E0022E02C0880F991F0A94E2F708
:100F6000809584238C9303C0198201C019828981E2
:100F700028960FB6F894DEBF0FBECDBFCF91DF919C
:100F80000895DF93CF93CDB7DEB727970FB6F894C8
:100F9000DEBF0FBECDBF8A836B835D834C8381E050
:100FA00089838A81843008F0A6C08B81883008F05C
:100FB000A2C08A81282F30E03F832E834E815F813B
:100FC00041305105C1F18E819F818230910534F409
:100FD0002E813F812115310571F08EC04E815F81D8
:100FE0004230510509F447C08E819F8183309105BD
:100FF00009F461C081C0E9E3F0E08081482F50E04E
:101000008B81282F30E081E090E002C0880F991F8B
:101010002A95E2F79A01282339238B81882F90E0C3
:10102000A90102C0559547958A95E2F7CA01EC815E
:10103000FD81808361C0E6E3F0E08081482F50E0CD
:101040008B81282F30E081E090E002C0880F991F4B
:101050002A95E2F79A01282339238B81882F90E083
:10106000A90102C0559547958A95E2F7CA01EC811E
:10107000FD81808341C0E3E3F0E08081482F50E0B0
:101080008B81282F30E081E090E002C0880F991F0B
:101090002A95E2F79A01282339238B81882F90E043
:1010A000A90102C0559547958A95E2F7CA01EC81DE
:1010B000FD81808321C0E0E3F0E08081482F50E093
:1010C0008B81282F30E081E090E002C0880F991FCB
:1010D0002A95E2F79A01282339238B81882F90E003
:1010E000A90102C0559547958A95E2F7CA01EC819E
:1010F000FD81808301C01982898127960FB6F894FB
:10110000DEBF0FBECDBFCF91DF910895DF93CF93A8
:1011100000D000D00F92CDB7DEB78A836B8381E019
:1011200089838B81883008F06FC08A81282F30E056
:101130003D832C838C819D818130910549F12C81E7
:101140003D81223031052CF48C819D81009761F026
:101150005CC02C813D812230310571F18C819D81F3
:1011600083309105E9F151C0ABE3B0E0EBE3F0E08F
:101170008081482F8B81282F30E081E090E0022E83
:1011800002C0880F991F0A94E2F784278C933DC010
:10119000A8E3B0E0E8E3F0E08081482F8B81282FBE
:1011A00030E081E090E0022E02C0880F991F0A947F
:1011B000E2F784278C9329C0A5E3B0E0E5E3F0E0F3
:1011C0008081482F8B81282F30E081E090E0022E33
:1011D00002C0880F991F0A94E2F784278C9315C0E8
:1011E000A2E3B0E0E2E3F0E08081482F8B81282F7A
:1011F00030E081E090E0022E02C0880F991F0A942F
:10120000E2F784278C9301C0198289810F900F9097
:101210000F900F900F90CF91DF910895DF93CF93B0
:1012200000D000D000D0CDB7DEB78A836B834C836B
:1012300081E089838A81843008F03EC18B818830C7
:1012400008F03AC18A81282F30E03E832D838D81BA
:101250009E818130910509F45DC02D813E8122304F
:1012600031052CF48D819E81009771F026C12D816E
:101270003E812230310509F493C08D819E818330F7
:10128000910509F4D3C019C18C81813071F5A0E5B5
:10129000B0E0E0E5F0E080818B7F8C93AAE3B0E0E2
:1012A000EAE3F0E08081482F8B81282F30E081E055
:1012B00090E002C0880F991F2A95E2F78095842359
:1012C0008C93ABE3B0E0EBE3F0E08081482F8B81BF
:1012D000282F30E081E090E0022E02C0880F991F95
:1012E0000A94E2F7842B8C93E8C0ABE3B0E0EBE325
:1012F000F0E08081482F8B81282F30E081E090E062
:10130000022E02C0880F991F0A94E2F78095842369
:101310008C93D3C08C81813071F5A0E5B0E0E0E51D
:10132000F0E080818B7F8C93A7E3B0E0E7E3F0E00F
:101330008081482F8B81282F30E081E090E002C02F
:10134000880F991F2A95E2F7809584238C93A8E350
:10135000B0E0E8E3F0E08081482F8B81282F30E077
:1013600081E090E0022E02C0880F991F0A94E2F7F4
:10137000842B8C93A2C0A8E3B0E0E8E3F0E0808186
:10138000482F8B81282F30E081E090E0022E02C0B0
:10139000880F991F0A94E2F7809584238C938DC05F
:1013A0008C81813071F5A0E5B0E0E0E5F0E080816E
:1013B0008B7F8C93A4E3B0E0E4E3F0E08081482FDE
:1013C0008B81282F30E081E090E002C0880F991FC8
:1013D0002A95E2F7809584238C93A5E3B0E0E5E3BA
:1013E000F0E08081482F8B81282F30E081E090E071
:1013F000022E02C0880F991F0A94E2F7842B8C9367
:101400005CC0A5E3B0E0E5E3F0E08081482F8B818C
:10141000282F30E081E090E0022E02C0880F991F53
:101420000A94E2F7809584238C9347C08C818130A5
:1014300071F5A0E5B0E0E0E5F0E080818B7F8C9372
:10144000A1E3B0E0E1E3F0E08081482F8B81282F19
:1014500030E081E090E002C0880F991F2A95E2F702
:10146000809584238C93A2E3B0E0E2E3F0E08081F6
:10147000482F8B81282F30E081E090E0022E02C0BF
:10148000880F991F0A94E2F7842B8C9316C0A2E36D
:10149000B0E0E2E3F0E08081482F8B81282F30E03C
:1014A00081E090E0022E02C0880F991F0A94E2F7B3
:1014B000809584238C9301C01982898126960FB66A
:1014C000F894DEBF0FBECDBFCF91DF910895DF93BB
:1014D000CF9300D000D00F92CDB7DEB78A836B8355
:1014E00081E089838A818430A8F58A81282F30E0C1
:1014F0003D832C838C819D8181309105D1F02C819D
:101500003D81223031052CF48C819D81009761F062
:101510001FC02C813D812230310581F08C819D815D
:101520008330910581F014C0EAE3F0E08B81808381
:1015300012C0E7E3F0E08B8180830DC0E4E3F0E0CC
:101540008B81808308C0E1E3F0E08B81808303C05E
:10155000198201C0198289810F900F900F900F900E
:101560000F90CF91DF910895DF93CF9300D000D0FB
:101570000F92CDB7DEB78A836B8381E089838A813E
:101580008430A8F58A81282F30E03D832C838C811C
:101590009D8181309105D1F02C813D812230310532
:1015A0002CF48C819D81009761F01FC02C813D81BE
:1015B0002230310581F08C819D818330910581F04D
:1015C00014C0EBE3F0E08B81808312C0E8E3F0E02D
:1015D0008B8180830DC0E5E3F0E08B81808308C0C0
:1015E000E2E3F0E08B81808303C0198201C019829D
:1015F00089810F900F900F900F900F90CF91DF91F6
:101600000895DF93CF9300D000D0CDB7DEB78A83A3
:1016100081E089838A81843008F03FC08A81282F45
:1016200030E03C832B838B819C8181309105E9F0F4
:101630002B813C81223031052CF48B819C810097D9
:1016400061F02CC02B813C8122303105B1F08B81BF
:101650009C8183309105C9F021C0ABE3B0E0EBE39E
:10166000F0E0808180958C9319C0A8E3B0E0E8E3B6
:10167000F0E0808180958C9311C0A5E3B0E0E5E3B4
:10168000F0E0808180958C9309C0A2E3B0E0E2E3B2
:10169000F0E0808180958C9301C0198289810F9040
:1016A0000F900F900F90CF91DF910895DF93CF931C
:1016B00000D000D000D0CDB7DEB78A837C836B83A7
:1016C00081E089838A818430E8F58A81282F30E09F
:1016D0003E832D838D819E8181309105E1F02D81A6
:1016E0003E81223031052CF48D819E81009761F07E
:1016F00027C02D813E8122303105A1F08D819E8150
:1017000083309105B1F01CC0E9E3F0E08081EB810A
:10171000FC81808318C0E6E3F0E08081EB81FC81EE
:10172000808311C0E3E3F0E08081EB81FC81808362
:101730000AC0E0E3F0E08081EB81FC81808303C09C
:10174000198201C01982898126960FB6F894DEBFEE
:101750000FBECDBFCF91DF910895DF93CF9300D01F
:1017600000D00F92CDB7DEB78A836B8381E0898387
:101770008A81843008F063C08B818295807F8B835F
:101780008A81282F30E03D832C838C819D8181309C
:10179000910529F12C813D81223031052CF48C8179
:1017A0009D81009761F04CC02C813D812230310534
:1017B00031F18C819D818330910589F141C0ABE38A
:1017C000B0E0EBE3F0E080818F708C93ABE3B0E0AE
:1017D000EBE3F0E090818B81892B8C9331C0A8E3FF
:1017E000B0E0E8E3F0E080818F708C93A8E3B0E094
:1017F000E8E3F0E090818B81892B8C9321C0A5E3F5
:10180000B0E0E5E3F0E080818F708C93A5E3B0E079
:10181000E5E3F0E090818B81892B8C9311C0A2E3EA
:10182000B0E0E2E3F0E080818F708C93A2E3B0E05F
:10183000E2E3F0E090818B81892B8C9301C01982C7
:1018400089810F900F900F900F900F90CF91DF91A3
:101850000895DF93CF9300D000D00F92CDB7DEB7BD
:101860008A836B8381E089838A81843008F062C037
:101870008B818F708B838A81282F30E03D832C836E
:101880008C819D818130910529F12C813D8122300F
:1018900031052CF48C819D81009761F04CC02C8126
:1018A0003D812230310531F18C819D81833091055C
:1018B00089F141C0ABE3B0E0EBE3F0E08081807FF1
:1018C0008C93ABE3B0E0EBE3F0E090818B81892B6C
:1018D0008C9331C0A8E3B0E0E8E3F0E08081807F42
:1018E0008C93A8E3B0E0E8E3F0E090818B81892B52
:1018F0008C9321C0A5E3B0E0E5E3F0E08081807F38
:101900008C93A5E3B0E0E5E3F0E090818B81892B37
:101910008C9311C0A2E3B0E0E2E3F0E08081807F2D
:101920008C93A2E3B0E0E2E3F0E090818B81892B1D
:101930008C9301C0198289810F900F900F900F90A6
:101940000F90CF91DF910895DF93CF93CDB7DEB79E
:10195000A5E5B0E0E5E5F0E080818E7F8C93A5E51C
:10196000B0E0E5E5F0E0808182608C93CF91DF917B
:101970000895DF93CF9300D000D000D0CDB7DEB76D
:1019800089836A838A81863008F4D4C08A8188304A
:1019900008F0D0C08A81882F90E00697880F991FA1
:1019A0008A838981282F30E03E832D838D819E811B
:1019B0008130910509F495C02D813E812230310599
:1019C00034F48D819E81009709F461C0D1C02D81CE
:1019D0003E812230310531F08D819E818330910529
:1019E00061F1C6C0A5E5B0E0E5E5F0E08081482FF3
:1019F0008A81282F30E081E090E002C0880F991F93
:101A00002A95E2F7809584238C93A5E5B0E0E5E57F
:101A1000F0E08081482F8A81882F90E09C012F5F21
:101A20003F4F81E090E0022E02C0880F991F0A9478
:101A3000E2F7809584238C939BC0A5E5B0E0E5E5B3
:101A4000F0E08081482F8A81282F30E081E090E00B
:101A500002C0880F991F2A95E2F7842B8C93A5E585
:101A6000B0E0E5E5F0E08081482F8A81882F90E0A2
:101A70009C012F5F3F4F81E090E0022E02C0880F53
:101A8000991F0A94E2F7809584238C9371C0A5E591
:101A9000B0E0E5E5F0E08081482F8A81282F30E032
:101AA00081E090E002C0880F991F2A95E2F78095A7
:101AB00084238C93A5E5B0E0E5E5F0E08081482F34
:101AC0008A81882F90E09C012F5F3F4F81E090E05A
:101AD000022E02C0880F991F0A94E2F7842B8C9380
:101AE00047C0A5E5B0E0E5E5F0E08081482F8A81B8
:101AF000282F30E081E090E002C0880F991F2A95DE
:101B0000E2F7842B8C93A5E5B0E0E5E5F0E0808179
:101B1000482F8A81882F90E09C012F5F3F4F81E002
:101B200090E0022E02C0880F991F0A94E2F7842BDE
:101B30008C931EC08981282F30E03C832B838B81BE
:101B40009C81009731F02B813C812130310549F097
:101B50000FC0A4E5B0E0E4E5F0E080818F7B8C93DA
:101B600007C0A4E5B0E0E4E5F0E0808180648C93F8
:101B700026960FB6F894DEBF0FBECDBFCF91DF9192
:101B80000895DF93CF9300D0CDB7DEB78A83198253
:101B90008A818630C0F08A818730A8F4ABE5B0E056
:101BA000EBE5F0E08081482F8A81282F30E081E04A
:101BB00090E0022E02C0880F991F0A94E2F78095E8
:101BC00084238C9302C081E0898389810F900F90D8
:101BD000CF91DF910895DF93CF9300D0CDB7DEB7DB
:101BE0008A8319828A818630B8F08A818730A0F48E
:101BF000ABE5B0E0EBE5F0E08081482F8A81282F4B
:101C000030E081E090E0022E02C0880F991F0A9414
:101C1000E2F7842B8C9302C081E0898389810F9045
:101C20000F90CF91DF910895DF93CF930F92CDB7AF
:101C3000DEB78983AAE5B0E0EAE5F0E08081482FCD
:101C40008981282F30E081E090E0022E02C0880FC9
:101C5000991F0A94E2F7842B8C930F90CF91DF9118
:101C60000895DF93CF930F92CDB7DEB78983EAE56E
:101C7000F0E08081482F50E08981282F30E081E01A
:101C800090E002C0880F991F2A95E2F79A01282355
:101C900039238981882F90E0A90102C05595479585
:101CA0008A95E2F7CA010F90CF91DF910895DF93F3
:101CB000CF9300D00F92CDB7DEB79A8389836B8321
:101CC00089819A81009761F08B81882F90E0880F3D
:101CD000991FFC01E859FF4F89819A819183808384
:101CE0000F900F900F90CF91DF9108951F920F9258
:101CF0000FB60F9211242F933F934F935F936F93DF
:101D00007F938F939F93AF93BF93EF93FF93DF9353
:101D1000CF93CDB7DEB780916800909169000097AE
:101D200041F0E0916800F0916900099586E00E9419
:101D3000140ECF91DF91FF91EF91BF91AF919F91E1
:101D40008F917F916F915F914F913F912F910F9064
:101D50000FBE0F901F9018951F920F920FB60F9203
:101D600011242F933F934F935F936F937F938F93A0
:101D70009F93AF93BF93EF93FF93DF93CF93CDB731
:101D8000DEB780916A0090916B00009741F0E0917E
:101D90006A00F0916B00099587E00E94140ECF91C4
:101DA000DF91FF91EF91BF91AF919F918F917F91C3
:101DB0006F915F914F913F912F910F900FBE0F90B8
:101DC0001F9018951F920F920FB60F9211242F9308
:101DD0003F934F935F936F937F938F939F93AF93B3
:101DE000BF93EF93FF93DF93CF93CDB7DEB780918F
:101DF0006C0090916D00009741F0E0916C00F091C3
:101E00006D00099585E00E94140ECF91DF91FF913E
:101E1000EF91BF91AF919F918F917F916F915F9162
:101E20004F913F912F910F900FBE0F901F901895DB
:101E3000DF93CF93CDB7DEB7AFE5B0E0EFE5F0E0ED
:101E4000808180688C93CF91DF910895DF93CF9349
:101E5000CDB7DEB7AFE5B0E0EFE5F0E080818F779A
:101E60008C93CF91DF910895DF93CF93CDB7DEB7F9
:101E7000A3E5B0E0E3E5F0E080818F7B8C93A3E500
:101E8000B0E0E3E5F0E08081877F8C93E2E5F0E06D
:101E900080EC8083A9E5B0E0E9E5F0E08081816035
:101EA0008C93A3E5B0E0E3E5F0E08081887F8C933C
:101EB000A3E5B0E0E3E5F0E0808182608C93CF9110
:101EC000DF910895DF93CF93CDB7DEB7AFE4B0E0F5
:101ED000EFE4F0E080818E7F8C93AFE4B0E0EFE43C
:101EE000F0E0808182608C93AEE4B0E0EEE4F0E05C
:101EF000808188608C93AEE4B0E0EEE4F0E0808115
:101F000080618C93EAE4F0E084EF91E09183808338
:101F1000E8E4F0E011821082E6E4F0E080E29EE482
:101F200091838083AEE4B0E0EEE4F0E080818064F1
:101F30008C93AFE4B0E0EFE4F0E080818F7B8C9392
:101F4000AFE4B0E0EFE4F0E0808180688C93AFE430
:101F5000B0E0EFE4F0E080818F7E8C93AFE4B0E0FE
:101F6000EFE4F0E0808180628C93A9E5B0E0E9E5E0
:101F7000F0E080818B7F8C93A9E5B0E0E9E5F0E0AB
:101F800080818F7E8C93A9E5B0E0E9E5F0E0808167
:101F9000877F8C93A9E5B0E0E9E5F0E080818F7D53
:101FA0008C93AEE4B0E0EEE4F0E08081887F8C9327
:101FB000AEE4B0E0EEE4F0E0808182608C93CF91FB
:101FC000DF910895DF93CF93CDB7DEB7A5E4B0E0FE
:101FD000E5E4F0E080818F7B8C93A5E4B0E0E5E45C
:101FE000F0E0808188608C93E3E4F0E08DE780830B
:101FF000A9E5B0E0E9E5F0E0808180688C93A5E494
:10200000B0E0E5E4F0E08081887F8C93A5E4B0E067
:10201000E5E4F0E0808183608C93CF91DF910895B7
:10202000DF93CF930F92CDB7DEB78983E2E5F0E07F
:10203000898180830F90CF91DF910895DF93CF93B3
:1020400000D0CDB7DEB79A838983ECE4F0E08981D4
:102050009A81918380830F900F90CF91DF910895A3
:10206000DF93CF930F92CDB7DEB78983E4E4F0E03E
:10207000898180830F90CF91DF910895DF93CF9373
:102080000F92CDB7DEB78983ECE5F0E089818083DC
:102090000F90CF91DF910895DF93CF9300D0CDB70C
:1020A000DEB79A838983EAE4F0E089819A8191839B
:1020B00080830F900F90CF91DF910895DF93CF939E
:1020C00000D0CDB7DEB79A838983E8E4F0E0898158
:1020D0009A81918380830F900F90CF91DF91089523
:1020E000DF93CF930F92CDB7DEB78983E3E4F0E0BF
:1020F000898180830F90CF91DF910895DF93CF93F3
:1021000000D0CDB7DEB79A838983E6E4F0E0898119
:102110009A81918380830F900F90CF91DF910895E2
:10212000DF93CF93CDB7DEB7E2E5F0E08081CF91CA
:10213000DF910895DF93CF93CDB7DEB7ECE4F0E005
:1021400080819181CF91DF910895DF93CF93CDB7B7
:10215000DEB7E4E4F0E08081CF91DF910895DF9372
:10216000CF9300D0CDB7DEB79A838983EAE4F0E05D
:1021700089819A81918380830F900F90CF91DF9115
:102180000895DF93CF93CDB7DEB7AEE4B0E0EEE4D1
:10219000F0E0808180648C93A9E5B0E0E9E5F0E0AF
:1021A000808180628C93CF91DF910895DF93CF93EC
:1021B00000D0CDB7DEB78A8319828A81813041F49D
:1021C000AEE4B0E0EEE4F0E0808180648C930DC07A
:1021D0008A81882341F4AEE4B0E0EEE4F0E080814F
:1021E0008F7B8C9302C081E0898389810F900F904F
:1021F000CF91DF910895DF93CF93CDB7DEB7A9E5F7
:10220000B0E0E9E5F0E0808180628C93CF91DF91CE
:102210000895DF93CF93CDB7DEB7A9E5B0E0E9E548
:10222000F0E080818F7D8C93CF91DF910895DF93D3
:10223000CF93CDB7DEB7E6E4F0E080819181CF9116
:10224000DF910895DF93CF93CDB7DEB7A1E4B0E07F
:10225000E1E4F0E08081887F8C93A1E4B0E0E1E4E8
:10226000F0E0808186608C93CF91DF910895DF93B9
:10227000CF93CDB7DEB7A1E4B0E0E1E4F0E0808138
:1022800088608C93CF91DF910895DF93CF93CDB782
:10229000DEB7A1E4B0E0E1E4F0E0808188618C93F6
:1022A000E1E4F0E01082CF91DF910895DF93CF93C6
:1022B00000D000D0CDB7DEB79B838A836C831982B0
:1022C0008A819B81009769F08C81882F90E0880F2C
:1022D000991FFC01E259FF4F8A819B819183808382
:1022E00002C082E0898389810F900F900F900F9038
:1022F000CF91DF9108951F920F920FB60F92112484
:102300002F933F934F935F936F937F938F939F93FD
:10231000AF93BF93EF93FF93DF93CF93CDB7DEB728
:102320008091840090918500009729F0E0918400CD
:10233000F09185000995CF91DF91FF91EF91BF91C9
:10234000AF919F918F917F916F915F914F913F914D
:102350002F910F900FBE0F901F9018951F920F9204
:102360000FB60F9211242F933F934F935F936F9368
:102370007F938F939F93AF93BF93EF93FF93DF93DD
:10238000CF93CDB7DEB78091820090918300009704
:1023900029F0E0918200F09183000995CF91DF91BF
:1023A000FF91EF91BF91AF919F918F917F916F912D
:1023B0005F914F913F912F910F900FBE0F901F9003
:1023C00018951F920F920FB60F9211242F933F93DF
:1023D0004F935F936F937F938F939F93AF93BF932D
:1023E000EF93FF93DF93CF93CDB7DEB7809180005B
:1023F00090918100009729F0E0918000F091810098
:102400000995CF91DF91FF91EF91BF91AF919F918E
:102410008F917F916F915F914F913F912F910F908D
:102420000FBE0F901F9018951F920F920FB60F922C
:1024300011242F933F934F935F936F937F938F93C9
:102440009F93AF93BF93EF93FF93DF93CF93CDB75A
:10245000DEB780917E0090917F00009729F0E09197
:102460007E00F0917F000995CF91DF91FF91EF9170
:10247000BF91AF919F918F917F916F915F914F919C
:102480003F912F910F900FBE0F901F9018951F92A4
:102490000F920FB60F9211242F933F934F935F9398
:1024A0006F937F938F939F93AF93BF93EF93FF931C
:1024B000DF93CF93CDB7DEB780917C0090917D0004
:1024C000009729F0E0917C00F0917D000995CF9173
:1024D000DF91FF91EF91BF91AF919F918F917F918C
:1024E0006F915F914F913F912F910F900FBE0F9081
:1024F0001F9018951F920F920FB60F9211242F93D1
:102500003F934F935F936F937F938F939F93AF937B
:10251000BF93EF93FF93DF93CF93CDB7DEB7809157
:102520007A0090917B00009729F0E0917A00F09179
:102530007B000995CF91DF91FF91EF91BF91AF9112
:102540009F918F917F916F915F914F913F912F91CB
:102550000F900FBE0F901F9018951F920F920FB6FD
:102560000F9211242F933F934F935F936F937F9319
:102570008F939F93AF93BF93EF93FF93DF93CF938B
:10258000CDB7DEB78091780090917900009729F05F
:10259000E0917800F09179000995CF91DF91FF915A
:1025A000EF91BF91AF919F918F917F916F915F91CB
:1025B0004F913F912F910F900FBE0F901F90189544
:1025C0001F920F920FB60F9211242F933F934F93A8
:1025D0005F936F937F938F939F93AF93BF93EF938B
:1025E000FF93DF93CF93CDB7DEB7809176009091C4
:1025F0007700009729F0E0917600F0917700099537
:10260000CF91DF91FF91EF91BF91AF919F918F910A
:102610007F916F915F914F913F912F910F900FBEDE
:102620000F901F901895DF93CF93CDB7DEB7AA9781
:102630000FB6F894DEBF0FBECDBFE3E3F0E08081BC
:10264000882F90E081709070009709F07BC080E047
:1026500090E0AAE7B3E48FA398A7A9A7BAA76FA1B0
:1026600078A589A59AA520E030E04AE753E40E94C6
:102670001F02DC01CB018BA39CA3ADA3BEA36BA166
:102680007CA18DA19EA120E030E040E85FE30E94A4
:10269000790388232CF481E090E09AA389A33FC0BA
:1026A0006BA17CA18DA19EA120E03FEF4FE757E4F5
:1026B0000E94190318164CF56FA178A589A59AA553
:1026C00020E030E040E251E40E941F02DC01CB0137
:1026D000BC01CD010E944900DC01CB019AA389A372
:1026E0000FC089E190E098A38F8F8F8D98A10197FB
:1026F000F1F798A38F8F89A19AA101979AA389A333
:1027000089A19AA1009769F714C06BA17CA18DA142
:102710009EA10E944900DC01CB019AA389A389A153
:102720009AA19E8F8D8F8D8D9E8D0197F1F79E8F33
:102730008D8F80918E008A3528F480918E00865F7F
:1027400080938E00E3E3F0E08081882F90E0827038
:102750009070009709F074C080E090E0AAE7B3E4BD
:10276000898F9A8FAB8FBC8F698D7A8D8B8D9C8D65
:1027700020E030E04AE753E40E941F02DC01CB0175
:102780008D8B9E8BAF8BB88F6D897E898F89988D4D
:1027900020E030E040E85FE30E94790388232CF4D6
:1027A00081E090E09C8B8B8B3FC06D897E898F8907
:1027B000988D20E03FEF4FE757E40E941903181669
:1027C0004CF5698D7A8D8B8D9C8D20E030E040E258
:1027D00051E40E941F02DC01CB01BC01CD010E942B
:1027E0004900DC01CB019C8B8B8B0FC089E190E011
:1027F0009A8B898B89899A890197F1F79A8B898BB2
:102800008B899C8901979C8B8B8B8B899C890097EA
:1028100069F714C06D897E898F89988D0E9449005F
:10282000DC01CB019C8B8B8B8B899C89988B8F8750
:102830008F8598890197F1F7988B8F8710928E007A
:10284000E3E3F0E08081882F90E08470907000973F
:1028500009F07BC080E090E0AAE7B3E48B879C8717
:10286000AD87BE876B857C858D859E8520E030E0B9
:102870004AE753E40E941F02DC01CB018F83988753
:10288000A987BA876F81788589859A8520E030E0AD
:1028900040E85FE30E94790388232CF481E090E014
:1028A0009E838D833FC06F81788589859A8520E0DE
:1028B0003FEF4FE757E40E94190318164CF56B855C
:1028C0007C858D859E8520E030E040E251E40E94C9
:1028D0001F02DC01CB01BC01CD010E944900DC01DB
:1028E000CB019E838D830FC089E190E09C838B8315
:1028F0008B819C810197F1F79C838B838D819E81D5
:1029000001979E838D838D819E81009769F714C006
:102910006F81788589859A850E944900DC01CB0109
:102920009E838D838D819E819A83898389819A81FB
:102930000197F1F79A83898380918E00882329F08B
:1029400080918E008A5080938E00ECE5F0E08091BB
:102950008E00482F50E0CA019C01220F331FC9018D
:102960009695982F882797958795821B930B840FB0
:10297000951F24E630E0B9010E94ED14CB0180835D
:10298000AA960FB6F894DEBF0FBECDBFCF91DF91F0
:102990000895DF93CF93CDB7DEB7E4E3F0E088EF9F
:1029A0008083E5E3F0E087E08083ECE5F0E01082EF
:1029B000E7E3F0E088E08083A3E5B0E0E3E5F0E062
:1029C000808188668C93A3E5B0E0E3E5F0E0808148
:1029D00082608C930E941313FDCF97FB092E07266C
:1029E0000AD077FD04D00CD006D000201AF47095E0
:1029F00061957F4F0895F6F7909581959F4F0895C3
:102A0000AA1BBB1B51E107C0AA1FBB1FA617B70714
:102A100010F0A61BB70B881F991F5A95A9F7809530
:102A20009095BC01CD0108952F923F924F925F92F5
:102A30006F927F928F929F92AF92BF92CF92DF92CE
:102A4000EF92FF920F931F93CF93DF93CDB7DEB733
:102A5000CA1BDB0B0FB6F894DEBF0FBECDBF0994C7
:102A60002A88398848885F846E847D848C849B841E
:102A7000AA84B984C884DF80EE80FD800C811B812C
:102A8000AA81B981CE0FD11D0FB6F894DEBF0FBE5B
:0A2A9000CDBFED010895F894FFCFCB
:082A9A00000000000000000034
:00000001FF
